:100000000C9436000C94C5010C9453000C945300CE
:100010000C9453000C9453000C9453000C94530014
:100020000C9453000C9453000C9453000C94E50171
:100030000C9453000C9453000C9453000C945300F4
:100040000C9453000C9453000C9453000C945300E4
:100050000C9453000C9453000C9453000C945300D4
:100060000C9453000C9453000C94530011241FBEA5
:10007000CFEFD4E0DEBFCDBF11E0A0E0B1E0E2E021
:10008000F7E102C005900D92A636B107D9F721E03D
:10009000A6E6B1E001C01D92AA3AB207E1F70E94BC
:1000A000FE050C947F0B0C94000087EC90E0019708
:1000B000F1F700C000008BB188608BB995E89A9584
:1000C000F1F700008BB1877F8BB985E88A95F1F74E
:1000D000000008959BB19F709BB980FF03C09BB146
:1000E00090619BB981FF03C09BB190629BB982FF75
:1000F00003C09BB190649BB983FF03C08BB1806840
:100100008BB90E9455000895CF93C82F85B18D7F7C
:1001100085B98C2F82958F700E946A008C2F8F700A
:100120000E946A008FE99FE00197F1F700C000008C
:10013000CF910895CF93C82F85B1826085B985E8A6
:100140008A95F1F700008C2F82958F700E946A00CB
:100150008C2F8F700E946A0085E88A95F1F7000065
:1001600085B18D7F85B985E88A95F1F70000CF913B
:1001700008958AB1886F8AB984B1826084B984B1E4
:10018000816084B985B18E7F85B98FE39CE9019741
:10019000F1F700C0000085B18D7F85B983E00E9432
:1001A0006A008FE097E20197F1F700C0000083E05A
:1001B0000E946A008BE291E00197F1F700C0000015
:1001C00083E00E946A008BE291E00197F1F700C0A2
:1001D000000082E00E946A0087EC90E00197F1F74E
:1001E00000C0000088E20E9484008CE00E9484002D
:1001F00086E00E94840081E00E94840087EC90E009
:100200000197F1F700C0000080E80E9484008FE9A8
:100210009FE00197F1F700C000000895CF93DF93AE
:10022000EC0180E80E9484008FE99FE00197F1F7DC
:1002300000C0000003C00E949A00219688818111AD
:10024000FACFDF91CF91089587E884B984E087B928
:1002500088B1886388B98AEF8AB9089510928000BE
:1002600088E08093810082E080936F001092850087
:10027000109284000895F8940E94B9000E9424010D
:100280000E942E0180E480937C0087E880937A00AE
:10029000E9E6F0E08081836080838DB381608DBB6F
:1002A00078940895ECE7F0E09081907F8F70892B2F
:1002B000808390E040E050E0BA0112C0EAE7F0E04D
:1002C00080818064808380917A0086FDFCCF2091BC
:1002D000780030917900420F531F611D711D9F5F9F
:1002E0009A3060F3CB01BA012AE030E040E050E000
:1002F0000E945608C9010895809167019091680194
:10030000009739F48FEF90E0909301018093000102
:1003100008958536910530F084E690E09093680169
:100320008093670180916701909168014FEF489F2A
:100330009001499F300D11243695279536952795C4
:10034000ABE7B4E10E9478089C01369527958FEFC2
:1003500090E0821B930B909301018093000183979F
:1003600030F483E290E090930101809300010895BE
:1003700085B1846085B987EC90E00197F1F700C002
:10038000000085B18B7F85B908951F920F920FB63B
:100390000F9211248F939F938091000190910101FE
:1003A0008F3F910558F490938900809388001092B4
:1003B0008500109284008CE0809381009F918F9142
:1003C0000F900FBE0F901F9018951F920F920FB6AF
:1003D0000F9211242F933F934F935F936F937F93CB
:1003E0008F939F93AF93BF93EF93FF930E94B801B6
:1003F00088E080938100FF91EF91BF91AF919F9131
:100400008F917F916F915F914F913F912F910F90BD
:100410000FBE0F901F901895CF92DF92EF92FF9230
:100420000F931F93FC014083518362837383048382
:10043000158326833783C086D186E286F3861486A9
:10044000158616861786108A118A128A138A148ACC
:10045000158A168A178A108E118E128E138E80E0DE
:1004600090E0A0E8BFE380A791A7A2A7B3A714A636
:1004700015A616A617A6148E158E168E178E80E05A
:1004800090E0A8ECB2E480A391A3A2A3B3A380E080
:1004900090E0AAE7B4E484A395A3A6A3B7A31F9111
:1004A0000F91FF90EF90DF90CF900895FC01108A9C
:1004B000118A128A138A148A158A168A178A08954D
:1004C0002F923F924F925F926F927F928F929F9264
:1004D000AF92BF92CF92DF92EF92FF920F931F9352
:1004E000CF93DF93CDB7DEB72A970FB6F894DEBF70
:1004F0000FBECDBF9A8789876A017B0148015901E8
:10050000FC016485758586859785A70196010E9403
:100510001F066B017C0120E030E040E050E40E94C7
:100520008C0688238CF420E030E040E050ECC701DA
:10053000B6010E94E40718163CF4E985FA85108D8F
:10054000018D328C238CC9C0E985FA8520813181E7
:1005500042815381C701B6010E94E90769837A830A
:100560008B839C8320E030E0A901C501B4010E9487
:10057000E4071816ECF4E985FA8540845184628416
:1005800073842489358946895789C701B6010E9439
:100590001F069B01AC01C301B2010E94E907A5013E
:1005A00094010E9491066D837E838F83988704C097
:1005B0001D821E821F821886E985FA8510A101A17D
:1005C00032A023A0A5019401C701B6010E94E9074A
:1005D000E985FA8520893189428953890E9420065C
:1005E0002B013C01E985FA85608B718B828B938BA3
:1005F00084A095A0A6A0B7A0A50194010E94E4073D
:1006000018163CF4E985FA85808A918AA28AB38A11
:1006100012C0B7FAB094B7F8B094A5019401C30121
:10062000B2010E948C06882334F4E985FA85808A19
:10063000918AA28AB38AE985FA8564817581868167
:10064000978120893189428953890E94E9079B015A
:10065000AC01E985FA85C48AD58AE68AF78A698178
:100660007A818B819C810E9420069B01AC016D8167
:100670007E818F8198850E942006F62EE72ED82E47
:10068000C92E262F372F482F592F612F702F832DDA
:10069000922D0E948C068823B4F0E985FA85148D8A
:1006A000058D368C278C212F302F432D522D6F2D09
:1006B0007E2D8D2D9C2D0E948C06882324F01F2DCD
:1006C0000E2D3D2C2C2C812F902FA32DB22DE985A2
:1006D000FA85808F918FA28FB38F612F702F832D1A
:1006E000922D2A960FB6F894DEBF0FBECDBFDF91D4
:1006F000CF911F910F91FF90EF90DF90CF90BF901F
:10070000AF909F908F907F906F905F904F903F90B1
:100710002F90089586E091E00E940E0187E391E01A
:100720000E940E01089520E030E042E053E40E9470
:10073000E4071816BCF48091A901833330F480914A
:10074000A9018F5F8093A90108950E948A031092E6
:100750006801109267010E947C018DE691E00E9481
:10076000560208958091A901882329F08091A9015A
:1007700081508093A9010895BF92CF92DF92EF92AA
:10078000FF920F931F93CF93DF93CDB7DEB72997D7
:100790000FB6F894DEBF0FBECDBF80E00E945201BD
:1007A000825D9109BC0180E090E00E94320722E561
:1007B00038EB4EE55FEB0E94E9070E94930386E069
:1007C0000E9452018E329105D0F027E2289FA001AD
:1007D000299F500D1124425057409A01AFEAB7E4C7
:1007E0000E947808481B590B56954795840F951F12
:1007F000929582958F7089279F70892702C080E02B
:1008000090E0880F991F20919D0130919E01280F43
:10081000391FABEABAEA0E9478086C01D694C794F3
:10082000D0929E01C0929D0187E00E9452018F30BC
:100830009105B8F04CE1489F9001499F300D11247B
:1008400020593F4FA3E8BDE20E947808969587950E
:1008500096958795969587957C0128ECE20EF11C7C
:1008600002C0E12CF12CB0900301E114F104C9F4B1
:1008700086E091E00E940E011092680110926701DB
:1008800010926A01109269010E947C018DE691E04C
:100890000E94560280E491E00E940E0110926601CF
:1008A0007AC180916601882309F460C08BEBC81679
:1008B000D104C0F41092A00110929F011092660121
:1008C00086E091E00E940E0184E491E00E940E0116
:1008D0009FEF21EE84E0915020408040E1F700C07E
:1008E000000044C08091A7019091A8019C012D5F58
:1008F0003F4F2E153F0520F00397E816F906C0F488
:100900001092A00110929F011092660186E091E082
:100910000E940E0184E491E00E940E019FEF21EEFF
:1009200084E0915020408040E1F700C000001EC0EC
:100930008EE190E090936801809367010E947C01B2
:100940008DE691E00E94560286E091E00E940E0141
:100950008BE491E00E940E019FEF20E782E091502E
:1009600020408040E1F700C0000015C1B70180E0E1
:1009700090E00E9432076093790170937A0180932E
:100980007B0190937C01B60180E090E00E943207E9
:10099000AB01BC010DEC1CEC2CEC3DE38DE691E0D1
:1009A0000E94600220E030E040E05FE30E94200609
:1009B0000E940307709368016093670165367105B3
:1009C00030F084E690E09093680180936701809115
:1009D0006701909168010A9730F48AE090E0909363
:1009E00068018093670180916701909168019093FD
:1009F000A6018093A5018091A3019091A4019C017F
:100A0000265F3F4F2C153D0528F4D092A401C092DB
:100A1000A3010DC00A97C816D90628F4D092A401E4
:100A2000C092A30104C0F092A401E092A3018091BE
:100A3000A1019091A201892B59F580916B019091B0
:100A40006C01019690936C0180936B0186E091E0BC
:100A50000E940E01FF92EF928091A0018F938091EE
:100A60009F018F9380E591E09F938F931F9289E080
:100A70008F938E010F5F1F4F1F930F930E94870864
:100A8000C8010E940E010FB6F894DEBF0FBECDBFA5
:100A90008091660181115FC08B2D90E09701281B2A
:100AA000390B2C153D0578F48E0D9F1DC816D906FF
:100AB00050F480919F019091A00101969093A00124
:100AC00080939F0110C08091020190E020919F01CE
:100AD0003091A0012817390730F0281B390B3093CB
:100AE000A00120939F0120919F013091A00180914E
:100AF0000401909105012817390768F11092A001AF
:100B000010929F018EE190E09093680180936701BD
:100B10000E947C018DE691E00E94560281E0809364
:100B2000660186E091E00E940E018BE491E00E9454
:100B30000E0110926C0110926B019FEF23ED80E388
:100B4000915020408040E1F700C00000F092A801E1
:100B5000E092A70120C04091A1015091A2014F5FF6
:100B60005F4F9A01ADECBCEC0E947808929582959B
:100B70008F7089279F70892764E1689F9001699F22
:100B8000300D1124CA01821B930B9093A201809314
:100B9000A1010E947C0129960FB6F894DEBF0FBE1A
:100BA000CDBFDF91CF911F910F91FF90EF90DF901C
:100BB000CF90BF90089586E091E00E940E0188E5F5
:100BC00091E00E940E012FEF84E39CE021508040D1
:100BD0009040E1F700C0000086E091E00E940E0125
:100BE0008FE591E00E940E012FEF84E39CE02150FD
:100BF00080409040E1F700C0000008950E943B0152
:100C00000E94DB050F2EFDECCF2EFCECDF2EFCE46A
:100C1000EF2EFEE3FF2EF02D9701860140E050E01D
:100C200060E07FE38DE691E00E940C020E94BC032D
:100C30008FE79EE30197F1F700C00000F7CF50580F
:100C4000BB27AA270E9437060C94AA070E949C077C
:100C500038F00E94A30720F039F49F3F19F426F4DE
:100C60000C9499070EF4E095E7FB0C949307E92F99
:100C70000E94BB0758F3BA176207730784079507EA
:100C800020F079F4A6F50C94DD070EF4E0950B2E18
:100C9000BA2FA02D0B01B90190010C01CA01A001CE
:100CA0001124FF27591B99F0593F50F4503E68F129
:100CB0001A16F040A22F232F342F4427585FF3CF6A
:100CC000469537952795A795F0405395C9F77EF43B
:100CD0001F16BA0B620B730B840BBAF09150A1F084
:100CE000FF0FBB1F661F771F881FC2F70EC0BA0F0A
:100CF000621F731F841F48F4879577956795B79592
:100D0000F7959E3F08F0B0CF9395880F08F099278C
:100D1000EE0F9795879508950E946F0708F481E07C
:100D200008950E94A5060C94AA070E94A30758F0F4
:100D30000E949C0740F029F45F3F29F00C94930730
:100D400051110C94DE070C9499070E94BB0768F3BD
:100D50009923B1F3552391F3951B550BBB27AA2774
:100D600062177307840738F09F5F5F4F220F331FAE
:100D7000441FAA1FA9F335D00E2E3AF0E0E832D076
:100D800091505040E695001CCAF72BD0FE2F29D079
:100D9000660F771F881FBB1F261737074807AB074B
:100DA000B0E809F0BB0B802DBF01FF2793585F4FC0
:100DB0003AF09E3F510578F00C9493070C94DE07AF
:100DC0005F3FE4F3983ED4F3869577956795B795A2
:100DD000F7959F5FC9F7880F911D9695879597F9AD
:100DE0000895E1E0660F771F881FBB1F6217730726
:100DF0008407BA0720F0621B730B840BBA0BEE1F3B
:100E000088F7E09508950E94C30788F09F5798F0EF
:100E1000B92F9927B751B0F0E1F0660F771F881FFF
:100E2000991F1AF0BA95C9F714C0B13091F00E9419
:100E3000DD07B1E008950C94DD07672F782F882730
:100E4000B85F39F0B93FCCF3869577956795B39540
:100E5000D9F73EF490958095709561957F4F8F4FAF
:100E60009F4F0895E89409C097FB3EF490958095B4
:100E7000709561957F4F8F4F9F4F9923A9F0F92F60
:100E800096E9BB279395F695879577956795B795DE
:100E9000F111F8CFFAF4BB0F11F460FF1BC06F5FC4
:100EA0007F4F8F4F9F4F16C0882311F096E911C0D6
:100EB000772321F09EE8872F762F05C0662371F0F7
:100EC00096E8862F70E060E02AF09A95660F771F0B
:100ED000881FDAF7880F9695879597F90895990FE7
:100EE0000008550FAA0BE0E8FEEF16161706E807F4
:100EF000F907C0F012161306E407F50798F0621B15
:100F0000730B840B950B39F40A2661F0232B242BE9
:100F1000252B21F408950A2609F4A140A6958FEF08
:100F2000811D811D089597F99F6780E870E060E05A
:100F300008959FEF80EC089500240A941616170672
:100F400018060906089500240A94121613061406BA
:100F500005060895092E0394000C11F4882352F01D
:100F6000BB0F40F4BF2B11F460FF04C06F5F7F4FD5
:100F70008F4F9F4F089557FD9058440F551F59F0BC
:100F80005F3F71F04795880F97FB991F61F09F3F76
:100F900079F087950895121613061406551FF2CF9F
:100FA0004695F1DF08C0161617061806991FF1CFEF
:100FB00086957105610508940895E894BB27662716
:100FC0007727CB0197F908950E946F0708F48FEFF8
:100FD00008950E94FC070C94AA070E949C0738F011
:100FE0000E94A30720F0952311F00C9493070C9412
:100FF000990711240C94DE070E94BB0770F3959F9C
:10100000C1F3950F50E0551F629FF001729FBB27FF
:10101000F00DB11D639FAA27F00DB11DAA1F649F9B
:101020006627B00DA11D661F829F2227B00DA11D4E
:10103000621F739FB00DA11D621F839FA00D611DD4
:10104000221F749F3327A00D611D231F849F600DF5
:10105000211D822F762F6A2F11249F5750409AF01E
:10106000F1F088234AF0EE0FFF1FBB1F661F771FAA
:10107000881F91505040A9F79E3F510580F00C9475
:1010800093070C94DE075F3FE4F3983ED4F3869514
:1010900077956795B795F795E7959F5FC1F7FE2B15
:1010A000880F911D9695879597F90895A1E21A2EBC
:1010B000AA1BBB1BFD010DC0AA1FBB1FEE1FFF1FFC
:1010C000A217B307E407F50720F0A21BB30BE40B4C
:1010D000F50B661F771F881F991F1A9469F7609593
:1010E0007095809590959B01AC01BD01CF0108954D
:1010F000A29FB001B39FC001A39F700D811D112459
:10110000911DB29F700D811D1124911D0895AEE0B7
:10111000B0E0EDE8F8E00C94560B0D891E898F893C
:10112000988D26E02C831A83098397FF02C080E004
:1011300090E801979E838D83AE01455E5F4F698D78
:101140007A8DCE0101960E94B7084D815E8157FDD0
:101150000AC02F813885421753070CF49A01F80111
:10116000E20FF31F10822E96E4E00C94720BABE0BA
:10117000B0E0EDEBF8E00C94480B6C017B018A01C8
:10118000FC0117821682838181FFCCC1CE010196BA
:101190003C01F6019381F70193FD859193FF8191C5
:1011A0007F01882309F4BAC1853239F493FD859112
:1011B00093FF81917F01853229F4B60190E00E946E
:1011C000AE0AE7CF912C212C312CFFE1F315D8F09A
:1011D0008B3279F038F4803279F08332A1F4232D08
:1011E00020611DC08D3261F0803369F4232D2160B0
:1011F00016C0832D8260382EE32DE4603E2E2AC077
:10120000F32DF8601DC037FC2DC020ED280F2A30CB
:1012100040F08E32B9F436FC81C1232D2064322E89
:1012200019C036FE06C08AE0989E200D1124922E29
:1012300011C0EAE02E9E200D1124222EF32DF06223
:101240003F2E08C08C3621F4832D8068382E02C0D2
:10125000883641F4F70193FD859193FF81917F01D9
:101260008111B3CF982F9F7D9554933028F40C5F54
:101270001F4F9FE399830DC0833631F0833771F0A0
:10128000833509F059C021C0F801808189830E5F40
:101290001F4F88248394912C530113C02801F2E03E
:1012A0004F0E511CF801A080B18036FE03C0692D9D
:1012B00070E002C06FEF7FEFC5010E94A30A4C01EE
:1012C0008201F32DFF773F2E16C0280122E0420E47
:1012D000511CF801A080B18036FE03C0692D70E07A
:1012E00002C06FEF7FEFC5010E94980A4C01F32DF9
:1012F000F0683F2E820133FC1BC0822D90E08816DF
:101300009906B0F4B60180E290E00E94AE0A2A94F9
:10131000F4CFF50137FC859137FE81915F01B6016D
:1013200090E00E94AE0A21102A9421E0821A9108CE
:101330008114910471F7E8C0843611F0893641F5C3
:10134000F80137FE07C060817181828193810C5F53
:101350001F4F08C060817181072E000C880B990B0C
:101360000E5F1F4FF32DFF763F2E97FF09C090951C
:101370008095709561957F4F8F4F9F4FF0683F2EFE
:101380002AE030E0A3010E94EA0A882E861845C0B0
:10139000853731F4232D2F7EB22E2AE030E025C090
:1013A000932D997FB92E8F36C1F018F4883579F0D6
:1013B000B5C0803719F0883721F0B0C0E92FE0615F
:1013C000BE2EB4FE0DC0FB2DF460BF2E09C034FE4E
:1013D0000AC0292F2660B22E06C028E030E005C0E2
:1013E00020E130E002C020E132E0F801B7FE07C0A2
:1013F00060817181828193810C5F1F4F06C0608183
:10140000718180E090E00E5F1F4FA3010E94EA0A05
:10141000882E8618FB2DFF773F2E36FE0DC0232D1C
:101420002E7FA22E891458F434FE0BC032FC09C062
:10143000832D8E7EA82E05C0B82CA32C03C0B82CFB
:1014400001C0B92CA4FE0FC0FE01E80DF11D808182
:10145000803321F49A2D997EA92E09C0A2FE06C0E0
:10146000B394B39404C08A2D867809F0B394A3FC96
:1014700011C0A0FE06C0B21488F4280C922C9B1850
:101480000EC0B21460F4B60180E290E00E94AE0A91
:10149000B394F7CFB21418F42B1802C0982C212C57
:1014A000A4FE10C0B60180E390E00E94AE0AA2FE46
:1014B00017C0A1FC03C088E790E002C088E590E077
:1014C000B6010CC08A2D867859F0A1FE02C08BE2CD
:1014D00001C080E2A7FC8DE2B60190E00E94AE0A56
:1014E000891438F4B60180E390E00E94AE0A9A9421
:1014F000F7CF8A94F301E80DF11D8081B60190E0E9
:101500000E94AE0A8110F5CF222009F442CEB60126
:1015100080E290E00E94AE0A2A94F6CFF60186811E
:10152000978102C08FEF9FEF2B96E2E10C94640B42
:10153000FC010590615070400110D8F7809590959E
:101540008E0F9F1F0895FC016150704001900110A3
:10155000D8F7809590958E0F9F1F08950F931F9336
:10156000CF93DF93FB01238121FD03C08FEF9FEF1A
:101570002CC022FF16C04681578124813581421735
:10158000530744F4A081B1819D012F5F3F4F318308
:1015900020838C93268137812F5F3F4F37832683AB
:1015A00014C08B01EC01FB010084F185E02D09954D
:1015B000892BE1F6D80116968D919C91179701968B
:1015C00017969C938E931697CE01DF91CF911F9122
:1015D0000F910895FA01AA27283051F1203181F1A5
:1015E000E8946F936E7F6E5F7F4F8F4F9F4FAF4F2B
:1015F000B1E03ED0B4E03CD0670F781F891F9A1F3E
:10160000A11D680F791F8A1F911DA11D6A0F711DF1
:10161000811D911DA11D20D009F468943F912AE0FD
:10162000269F11243019305D3193DEF6CF010895E5
:10163000462F4770405D4193B3E00FD0C9F7F6CF16
:10164000462F4F70405D4A3318F0495D31FD4052DE
:10165000419302D0A9F7EACFB4E0A6959795879574
:1016600077956795BA95C9F7009761057105089553
:101670009B01AC010A2E06945795479537952795FF
:10168000BA95C9F7620F731F841F951FA01D089597
:101690002F923F924F925F926F927F928F929F9282
:1016A000AF92BF92CF92DF92EF92FF920F931F9370
:1016B000CF93DF93CDB7DEB7CA1BDB0B0FB6F89421
:1016C000DEBF0FBECDBF09942A88398848885F8461
:1016D0006E847D848C849B84AA84B984C884DF80D2
:1016E000EE80FD800C811B81AA81B981CE0FD11DB6
:1016F0000FB6F894DEBF0FBECDBFED010895F8948C
:02170000FFCF19
:10170200E100E814A00F20202020202020200053F8
:101712004C454550204C494D00503A253264002337
:101722003A253264005057525041555345005348B0
:101732005554444F574E004F564552484541540068
:101742004F666600524553554D450049444C45008D
:101752002532753E2532750041504F4C4C4F005397
:0617620054415254000046
:00000001FF
